{
  "_format": "hh-sol-artifact-1",
  "contractName": "Transactions",
  "sourceName": "contracts/Transactions.sol",
  "abi": [
    {
      "anonymous": false,
      "inputs": [
        {
          "indexed": false,
          "internalType": "address",
          "name": "from",
          "type": "address"
        },
        {
          "indexed": false,
          "internalType": "address",
          "name": "receiver",
          "type": "address"
        },
        {
          "indexed": false,
          "internalType": "uint256",
          "name": "amount",
          "type": "uint256"
        },
        {
          "indexed": false,
          "internalType": "uint256",
          "name": "transactionId",
          "type": "uint256"
        },
        {
          "indexed": false,
          "internalType": "uint256",
          "name": "timestamp",
          "type": "uint256"
        },
        {
          "indexed": false,
          "internalType": "string",
          "name": "message",
          "type": "string"
        },
        {
          "indexed": false,
          "internalType": "string",
          "name": "keyword",
          "type": "string"
        }
      ],
      "name": "trasfer",
      "type": "event"
    },
    {
      "inputs": [
        {
          "internalType": "address",
          "name": "_receiver",
          "type": "address"
        },
        {
          "internalType": "uint256",
          "name": "_amount",
          "type": "uint256"
        },
        {
          "internalType": "string",
          "name": "_message",
          "type": "string"
        },
        {
          "internalType": "string",
          "name": "_keyword",
          "type": "string"
        }
      ],
      "name": "addToBlockchain",
      "outputs": [],
      "stateMutability": "nonpayable",
      "type": "function"
    },
    {
      "inputs": [
        {
          "internalType": "uint256",
          "name": "transactionId",
          "type": "uint256"
        }
      ],
      "name": "getTransaction",
      "outputs": [
        {
          "components": [
            {
              "internalType": "address",
              "name": "from",
              "type": "address"
            },
            {
              "internalType": "address",
              "name": "receiver",
              "type": "address"
            },
            {
              "internalType": "uint256",
              "name": "amount",
              "type": "uint256"
            },
            {
              "internalType": "uint256",
              "name": "transactionId",
              "type": "uint256"
            },
            {
              "internalType": "uint256",
              "name": "timestamp",
              "type": "uint256"
            },
            {
              "internalType": "string",
              "name": "message",
              "type": "string"
            },
            {
              "internalType": "string",
              "name": "keyword",
              "type": "string"
            }
          ],
          "internalType": "struct Transactions.TrasferStruct",
          "name": "",
          "type": "tuple"
        }
      ],
      "stateMutability": "view",
      "type": "function"
    },
    {
      "inputs": [],
      "name": "getTransactionCount",
      "outputs": [
        {
          "internalType": "uint256",
          "name": "",
          "type": "uint256"
        }
      ],
      "stateMutability": "view",
      "type": "function"
    },
    {
      "inputs": [],
      "name": "getTransactions",
      "outputs": [
        {
          "components": [
            {
              "internalType": "address",
              "name": "from",
              "type": "address"
            },
            {
              "internalType": "address",
              "name": "receiver",
              "type": "address"
            },
            {
              "internalType": "uint256",
              "name": "amount",
              "type": "uint256"
            },
            {
              "internalType": "uint256",
              "name": "transactionId",
              "type": "uint256"
            },
            {
              "internalType": "uint256",
              "name": "timestamp",
              "type": "uint256"
            },
            {
              "internalType": "string",
              "name": "message",
              "type": "string"
            },
            {
              "internalType": "string",
              "name": "keyword",
              "type": "string"
            }
          ],
          "internalType": "struct Transactions.TrasferStruct[]",
          "name": "",
          "type": "tuple[]"
        }
      ],
      "stateMutability": "view",
      "type": "function"
    }
  ],
  "bytecode": "0x60806040526000805534801561001457600080fd5b50611025806100246000396000f3fe608060405234801561001057600080fd5b506004361061004c5760003560e01c80632e7700f01461005157806333ea3dc81461006f57806383920e901461009f578063cc2d7ead146100bd575b600080fd5b6100596100d9565b6040516100669190610854565b60405180910390f35b610089600480360381019061008491906108af565b6100e2565b6040516100969190610a68565b60405180910390f35b6100a761030c565b6040516100b49190610bef565b60405180910390f35b6100d760048036038101906100d29190610d72565b610559565b005b60008054905090565b6100ea61072f565b600182815481106100fe576100fd610e11565b5b90600052602060002090600702016040518060e00160405290816000820160009054906101000a900473ffffffffffffffffffffffffffffffffffffffff1673ffffffffffffffffffffffffffffffffffffffff1673ffffffffffffffffffffffffffffffffffffffff1681526020016001820160009054906101000a900473ffffffffffffffffffffffffffffffffffffffff1673ffffffffffffffffffffffffffffffffffffffff1673ffffffffffffffffffffffffffffffffffffffff1681526020016002820154815260200160038201548152602001600482015481526020016005820180546101f190610e6f565b80601f016020809104026020016040519081016040528092919081815260200182805461021d90610e6f565b801561026a5780601f1061023f5761010080835404028352916020019161026a565b820191906000526020600020905b81548152906001019060200180831161024d57829003601f168201915b5050505050815260200160068201805461028390610e6f565b80601f01602080910402602001604051908101604052809291908181526020018280546102af90610e6f565b80156102fc5780601f106102d1576101008083540402835291602001916102fc565b820191906000526020600020905b8154815290600101906020018083116102df57829003601f168201915b5050505050815250509050919050565b60606001805480602002602001604051908101604052809291908181526020016000905b8282101561055057838290600052602060002090600702016040518060e00160405290816000820160009054906101000a900473ffffffffffffffffffffffffffffffffffffffff1673ffffffffffffffffffffffffffffffffffffffff1673ffffffffffffffffffffffffffffffffffffffff1681526020016001820160009054906101000a900473ffffffffffffffffffffffffffffffffffffffff1673ffffffffffffffffffffffffffffffffffffffff1673ffffffffffffffffffffffffffffffffffffffff16815260200160028201548152602001600382015481526020016004820154815260200160058201805461042d90610e6f565b80601f016020809104026020016040519081016040528092919081815260200182805461045990610e6f565b80156104a65780601f1061047b576101008083540402835291602001916104a6565b820191906000526020600020905b81548152906001019060200180831161048957829003601f168201915b505050505081526020016006820180546104bf90610e6f565b80601f01602080910402602001604051908101604052809291908181526020018280546104eb90610e6f565b80156105385780601f1061050d57610100808354040283529160200191610538565b820191906000526020600020905b81548152906001019060200180831161051b57829003601f168201915b50505050508152505081526020019060010190610330565b50505050905090565b60016040518060e001604052803373ffffffffffffffffffffffffffffffffffffffff1681526020018673ffffffffffffffffffffffffffffffffffffffff168152602001858152602001600054815260200142815260200184815260200183815250908060018154018082558091505060019003906000526020600020906007020160009091909190915060008201518160000160006101000a81548173ffffffffffffffffffffffffffffffffffffffff021916908373ffffffffffffffffffffffffffffffffffffffff16021790555060208201518160010160006101000a81548173ffffffffffffffffffffffffffffffffffffffff021916908373ffffffffffffffffffffffffffffffffffffffff16021790555060408201518160020155606082015181600301556080820151816004015560a08201518160050190805190602001906106ad929190610798565b5060c08201518160060190805190602001906106ca929190610798565b5050506000808154809291906106df90610ed0565b91905055507f98fe7d99409d7d2ba817b53d943124ae078c6e669d418e9506446b243cea9e323385856000544287876040516107219796959493929190610f72565b60405180910390a150505050565b6040518060e00160405280600073ffffffffffffffffffffffffffffffffffffffff168152602001600073ffffffffffffffffffffffffffffffffffffffff16815260200160008152602001600081526020016000815260200160608152602001606081525090565b8280546107a490610e6f565b90600052602060002090601f0160209004810192826107c6576000855561080d565b82601f106107df57805160ff191683800117855561080d565b8280016001018555821561080d579182015b8281111561080c5782518255916020019190600101906107f1565b5b50905061081a919061081e565b5090565b5b8082111561083757600081600090555060010161081f565b5090565b6000819050919050565b61084e8161083b565b82525050565b60006020820190506108696000830184610845565b92915050565b6000604051905090565b600080fd5b600080fd5b61088c8161083b565b811461089757600080fd5b50565b6000813590506108a981610883565b92915050565b6000602082840312156108c5576108c4610879565b5b60006108d38482850161089a565b91505092915050565b600073ffffffffffffffffffffffffffffffffffffffff82169050919050565b6000610907826108dc565b9050919050565b610917816108fc565b82525050565b6109268161083b565b82525050565b600081519050919050565b600082825260208201905092915050565b60005b8381101561096657808201518184015260208101905061094b565b83811115610975576000848401525b50505050565b6000601f19601f8301169050919050565b60006109978261092c565b6109a18185610937565b93506109b1818560208601610948565b6109ba8161097b565b840191505092915050565b600060e0830160008301516109dd600086018261090e565b5060208301516109f0602086018261090e565b506040830151610a03604086018261091d565b506060830151610a16606086018261091d565b506080830151610a29608086018261091d565b5060a083015184820360a0860152610a41828261098c565b91505060c083015184820360c0860152610a5b828261098c565b9150508091505092915050565b60006020820190508181036000830152610a8281846109c5565b905092915050565b600081519050919050565b600082825260208201905092915050565b6000819050602082019050919050565b600060e083016000830151610ace600086018261090e565b506020830151610ae1602086018261090e565b506040830151610af4604086018261091d565b506060830151610b07606086018261091d565b506080830151610b1a608086018261091d565b5060a083015184820360a0860152610b32828261098c565b91505060c083015184820360c0860152610b4c828261098c565b9150508091505092915050565b6000610b658383610ab6565b905092915050565b6000602082019050919050565b6000610b8582610a8a565b610b8f8185610a95565b935083602082028501610ba185610aa6565b8060005b85811015610bdd5784840389528151610bbe8582610b59565b9450610bc983610b6d565b925060208a01995050600181019050610ba5565b50829750879550505050505092915050565b60006020820190508181036000830152610c098184610b7a565b905092915050565b610c1a816108fc565b8114610c2557600080fd5b50565b600081359050610c3781610c11565b92915050565b600080fd5b600080fd5b7f4e487b7100000000000000000000000000000000000000000000000000000000600052604160045260246000fd5b610c7f8261097b565b810181811067ffffffffffffffff82111715610c9e57610c9d610c47565b5b80604052505050565b6000610cb161086f565b9050610cbd8282610c76565b919050565b600067ffffffffffffffff821115610cdd57610cdc610c47565b5b610ce68261097b565b9050602081019050919050565b82818337600083830152505050565b6000610d15610d1084610cc2565b610ca7565b905082815260208101848484011115610d3157610d30610c42565b5b610d3c848285610cf3565b509392505050565b600082601f830112610d5957610d58610c3d565b5b8135610d69848260208601610d02565b91505092915050565b60008060008060808587031215610d8c57610d8b610879565b5b6000610d9a87828801610c28565b9450506020610dab8782880161089a565b935050604085013567ffffffffffffffff811115610dcc57610dcb61087e565b5b610dd887828801610d44565b925050606085013567ffffffffffffffff811115610df957610df861087e565b5b610e0587828801610d44565b91505092959194509250565b7f4e487b7100000000000000000000000000000000000000000000000000000000600052603260045260246000fd5b7f4e487b7100000000000000000000000000000000000000000000000000000000600052602260045260246000fd5b60006002820490506001821680610e8757607f821691505b60208210811415610e9b57610e9a610e40565b5b50919050565b7f4e487b7100000000000000000000000000000000000000000000000000000000600052601160045260246000fd5b6000610edb8261083b565b91507fffffffffffffffffffffffffffffffffffffffffffffffffffffffffffffffff821415610f0e57610f0d610ea1565b5b600182019050919050565b610f22816108fc565b82525050565b600082825260208201905092915050565b6000610f448261092c565b610f4e8185610f28565b9350610f5e818560208601610948565b610f678161097b565b840191505092915050565b600060e082019050610f87600083018a610f19565b610f946020830189610f19565b610fa16040830188610845565b610fae6060830187610845565b610fbb6080830186610845565b81810360a0830152610fcd8185610f39565b905081810360c0830152610fe18184610f39565b90509897505050505050505056fea2646970667358221220badcb99f8d4d1442f95041507c636ca0225b3cf67f12330e479f5362b7ad52bf64736f6c63430008090033",
  "linkReferences": {},
  "deployedLinkReferences": {}
}